{
  "_format": "hh-sol-artifact-1",
  "contractName": "ArsErc20",
  "sourceName": "contracts/ArsErc20.sol",
  "abi": [
    {
      "inputs": [
        {
          "internalType": "uint256",
          "name": "_initialAmount",
          "type": "uint256"
        },
        {
          "internalType": "string",
          "name": "_tokenName",
          "type": "string"
        },
        {
          "internalType": "uint256",
          "name": "_decimalUnits",
          "type": "uint256"
        },
        {
          "internalType": "string",
          "name": "_tokenSymbol",
          "type": "string"
        }
      ],
      "stateMutability": "nonpayable",
      "type": "constructor"
    },
    {
      "inputs": [
        {
          "internalType": "address",
          "name": "owner",
          "type": "address"
        },
        {
          "internalType": "address",
          "name": "spender",
          "type": "address"
        }
      ],
      "name": "allowance",
      "outputs": [
        {
          "internalType": "uint256",
          "name": "",
          "type": "uint256"
        }
      ],
      "stateMutability": "view",
      "type": "function"
    },
    {
      "inputs": [
        {
          "internalType": "address",
          "name": "spender",
          "type": "address"
        },
        {
          "internalType": "uint256",
          "name": "amount",
          "type": "uint256"
        }
      ],
      "name": "approve",
      "outputs": [],
      "stateMutability": "nonpayable",
      "type": "function"
    },
    {
      "inputs": [
        {
          "internalType": "address",
          "name": "account",
          "type": "address"
        }
      ],
      "name": "balanceOf",
      "outputs": [
        {
          "internalType": "uint256",
          "name": "",
          "type": "uint256"
        }
      ],
      "stateMutability": "view",
      "type": "function"
    },
    {
      "inputs": [
        {
          "internalType": "address",
          "name": "target",
          "type": "address"
        },
        {
          "internalType": "uint256",
          "name": "amount",
          "type": "uint256"
        }
      ],
      "name": "burn",
      "outputs": [],
      "stateMutability": "nonpayable",
      "type": "function"
    },
    {
      "inputs": [],
      "name": "decimals",
      "outputs": [
        {
          "internalType": "uint256",
          "name": "",
          "type": "uint256"
        }
      ],
      "stateMutability": "view",
      "type": "function"
    },
    {
      "inputs": [
        {
          "internalType": "address",
          "name": "recipient",
          "type": "address"
        },
        {
          "internalType": "uint256",
          "name": "amount",
          "type": "uint256"
        }
      ],
      "name": "mint",
      "outputs": [],
      "stateMutability": "nonpayable",
      "type": "function"
    },
    {
      "inputs": [],
      "name": "name",
      "outputs": [
        {
          "internalType": "string",
          "name": "",
          "type": "string"
        }
      ],
      "stateMutability": "view",
      "type": "function"
    },
    {
      "inputs": [],
      "name": "symbol",
      "outputs": [
        {
          "internalType": "string",
          "name": "",
          "type": "string"
        }
      ],
      "stateMutability": "view",
      "type": "function"
    },
    {
      "inputs": [],
      "name": "totalSuppply",
      "outputs": [
        {
          "internalType": "uint256",
          "name": "",
          "type": "uint256"
        }
      ],
      "stateMutability": "view",
      "type": "function"
    },
    {
      "inputs": [
        {
          "internalType": "address",
          "name": "recipient",
          "type": "address"
        },
        {
          "internalType": "uint256",
          "name": "amount",
          "type": "uint256"
        }
      ],
      "name": "transfer",
      "outputs": [],
      "stateMutability": "nonpayable",
      "type": "function"
    },
    {
      "inputs": [
        {
          "internalType": "address",
          "name": "from",
          "type": "address"
        },
        {
          "internalType": "address",
          "name": "to",
          "type": "address"
        },
        {
          "internalType": "uint256",
          "name": "amount",
          "type": "uint256"
        }
      ],
      "name": "transferFrom",
      "outputs": [],
      "stateMutability": "nonpayable",
      "type": "function"
    }
  ],
  "bytecode": "0x60806040523480156200001157600080fd5b50604051620016e3380380620016e38339818101604052810190620000379190620001fd565b836000803373ffffffffffffffffffffffffffffffffffffffff1673ffffffffffffffffffffffffffffffffffffffff1681526020019081526020016000208190555083600181905550826003908051906020019062000099929190620000c4565b50816004819055508060059080519060200190620000b9929190620000c4565b50505050506200042f565b828054620000d2906200033a565b90600052602060002090601f016020900481019282620000f6576000855562000142565b82601f106200011157805160ff191683800117855562000142565b8280016001018555821562000142579182015b828111156200014157825182559160200191906001019062000124565b5b50905062000151919062000155565b5090565b5b808211156200017057600081600090555060010162000156565b5090565b60006200018b6200018584620002c4565b6200029b565b905082815260208101848484011115620001a457600080fd5b620001b184828562000304565b509392505050565b600082601f830112620001cb57600080fd5b8151620001dd84826020860162000174565b91505092915050565b600081519050620001f78162000415565b92915050565b600080600080608085870312156200021457600080fd5b60006200022487828801620001e6565b945050602085015167ffffffffffffffff8111156200024257600080fd5b6200025087828801620001b9565b93505060406200026387828801620001e6565b925050606085015167ffffffffffffffff8111156200028157600080fd5b6200028f87828801620001b9565b91505092959194509250565b6000620002a7620002ba565b9050620002b5828262000370565b919050565b6000604051905090565b600067ffffffffffffffff821115620002e257620002e1620003d5565b5b620002ed8262000404565b9050602081019050919050565b6000819050919050565b60005b838110156200032457808201518184015260208101905062000307565b8381111562000334576000848401525b50505050565b600060028204905060018216806200035357607f821691505b602082108114156200036a5762000369620003a6565b5b50919050565b6200037b8262000404565b810181811067ffffffffffffffff821117156200039d576200039c620003d5565b5b80604052505050565b7f4e487b7100000000000000000000000000000000000000000000000000000000600052602260045260246000fd5b7f4e487b7100000000000000000000000000000000000000000000000000000000600052604160045260246000fd5b6000601f19601f8301169050919050565b6200042081620002fa565b81146200042c57600080fd5b50565b6112a4806200043f6000396000f3fe608060405234801561001057600080fd5b50600436106100a95760003560e01c806370a082311161007157806370a082311461013e57806395d89b411461016e5780639dc29fac1461018c578063a9059cbb146101a8578063dd62ed3e146101c4578063ee8b6025146101f4576100a9565b806306fdde03146100ae578063095ea7b3146100cc57806323b872dd146100e8578063313ce5671461010457806340c10f1914610122575b600080fd5b6100b6610212565b6040516100c39190610eb7565b60405180910390f35b6100e660048036038101906100e19190610da7565b6102a0565b005b61010260048036038101906100fd9190610d58565b610416565b005b61010c610778565b6040516101199190610f59565b60405180910390f35b61013c60048036038101906101379190610da7565b61077e565b005b61015860048036038101906101539190610cf3565b610860565b6040516101659190610f59565b60405180910390f35b6101766108a8565b6040516101839190610eb7565b60405180910390f35b6101a660048036038101906101a19190610da7565b610936565b005b6101c260048036038101906101bd9190610da7565b610a99565b005b6101de60048036038101906101d99190610d1c565b610c38565b6040516101eb9190610f59565b60405180910390f35b6101fc610cbf565b6040516102099190610f59565b60405180910390f35b6003805461021f90611089565b80601f016020809104026020016040519081016040528092919081815260200182805461024b90611089565b80156102985780601f1061026d57610100808354040283529160200191610298565b820191906000526020600020905b81548152906001019060200180831161027b57829003601f168201915b505050505081565b6000803373ffffffffffffffffffffffffffffffffffffffff1673ffffffffffffffffffffffffffffffffffffffff16815260200190815260200160002054811115610321576040517f08c379a000000000000000000000000000000000000000000000000000000000815260040161031890610ef9565b60405180910390fd5b600073ffffffffffffffffffffffffffffffffffffffff168273ffffffffffffffffffffffffffffffffffffffff161415610391576040517f08c379a000000000000000000000000000000000000000000000000000000000815260040161038890610f19565b60405180910390fd5b80600260003373ffffffffffffffffffffffffffffffffffffffff1673ffffffffffffffffffffffffffffffffffffffff16815260200190815260200160002060008473ffffffffffffffffffffffffffffffffffffffff1673ffffffffffffffffffffffffffffffffffffffff168152602001908152602001600020819055505050565b600073ffffffffffffffffffffffffffffffffffffffff168373ffffffffffffffffffffffffffffffffffffffff161415610486576040517f08c379a000000000000000000000000000000000000000000000000000000000815260040161047d90610f39565b60405180910390fd5b6000808473ffffffffffffffffffffffffffffffffffffffff1673ffffffffffffffffffffffffffffffffffffffff16815260200190815260200160002054811115610507576040517f08c379a00000000000000000000000000000000000000000000000000000000081526004016104fe90610ef9565b60405180910390fd5b600073ffffffffffffffffffffffffffffffffffffffff168273ffffffffffffffffffffffffffffffffffffffff161415610577576040517f08c379a000000000000000000000000000000000000000000000000000000000815260040161056e90610f39565b60405180910390fd5b80600260008573ffffffffffffffffffffffffffffffffffffffff1673ffffffffffffffffffffffffffffffffffffffff16815260200190815260200160002060008473ffffffffffffffffffffffffffffffffffffffff1673ffffffffffffffffffffffffffffffffffffffff168152602001908152602001600020541015610636576040517f08c379a000000000000000000000000000000000000000000000000000000000815260040161062d90610ed9565b60405180910390fd5b80600260008573ffffffffffffffffffffffffffffffffffffffff1673ffffffffffffffffffffffffffffffffffffffff16815260200190815260200160002060008473ffffffffffffffffffffffffffffffffffffffff1673ffffffffffffffffffffffffffffffffffffffff16815260200190815260200160002060008282546106c29190610fe6565b92505081905550806000808573ffffffffffffffffffffffffffffffffffffffff1673ffffffffffffffffffffffffffffffffffffffff16815260200190815260200160002060008282546107179190610fe6565b92505081905550806000808473ffffffffffffffffffffffffffffffffffffffff1673ffffffffffffffffffffffffffffffffffffffff168152602001908152602001600020600082825461076c9190610f90565b92505081905550505050565b60045481565b600073ffffffffffffffffffffffffffffffffffffffff168273ffffffffffffffffffffffffffffffffffffffff1614156107ee576040517f08c379a00000000000000000000000000000000000000000000000000000000081526004016107e590610f19565b60405180910390fd5b806000808473ffffffffffffffffffffffffffffffffffffffff1673ffffffffffffffffffffffffffffffffffffffff168152602001908152602001600020600082825461083c9190610f90565b9250508190555080600160008282546108559190610f90565b925050819055505050565b60008060008373ffffffffffffffffffffffffffffffffffffffff1673ffffffffffffffffffffffffffffffffffffffff168152602001908152602001600020549050919050565b600580546108b590611089565b80601f01602080910402602001604051908101604052809291908181526020018280546108e190611089565b801561092e5780601f106109035761010080835404028352916020019161092e565b820191906000526020600020905b81548152906001019060200180831161091157829003601f168201915b505050505081565b6000808373ffffffffffffffffffffffffffffffffffffffff1673ffffffffffffffffffffffffffffffffffffffff168152602001908152602001600020548111156109b7576040517f08c379a00000000000000000000000000000000000000000000000000000000081526004016109ae90610ef9565b60405180910390fd5b600073ffffffffffffffffffffffffffffffffffffffff168273ffffffffffffffffffffffffffffffffffffffff161415610a27576040517f08c379a0000000000000000000000000000000000000000000000000000000008152600401610a1e90610f19565b60405180910390fd5b806000808473ffffffffffffffffffffffffffffffffffffffff1673ffffffffffffffffffffffffffffffffffffffff1681526020019081526020016000206000828254610a759190610fe6565b925050819055508060016000828254610a8e9190610fe6565b925050819055505050565b6000803373ffffffffffffffffffffffffffffffffffffffff1673ffffffffffffffffffffffffffffffffffffffff16815260200190815260200160002054811115610b1a576040517f08c379a0000000000000000000000000000000000000000000000000000000008152600401610b1190610ef9565b60405180910390fd5b600073ffffffffffffffffffffffffffffffffffffffff168273ffffffffffffffffffffffffffffffffffffffff161415610b8a576040517f08c379a0000000000000000000000000000000000000000000000000000000008152600401610b8190610f39565b60405180910390fd5b806000803373ffffffffffffffffffffffffffffffffffffffff1673ffffffffffffffffffffffffffffffffffffffff1681526020019081526020016000206000828254610bd89190610fe6565b92505081905550806000808473ffffffffffffffffffffffffffffffffffffffff1673ffffffffffffffffffffffffffffffffffffffff1681526020019081526020016000206000828254610c2d9190610f90565b925050819055505050565b6000600260008473ffffffffffffffffffffffffffffffffffffffff1673ffffffffffffffffffffffffffffffffffffffff16815260200190815260200160002060008373ffffffffffffffffffffffffffffffffffffffff1673ffffffffffffffffffffffffffffffffffffffff16815260200190815260200160002054905092915050565b6000600154905090565b600081359050610cd881611240565b92915050565b600081359050610ced81611257565b92915050565b600060208284031215610d0557600080fd5b6000610d1384828501610cc9565b91505092915050565b60008060408385031215610d2f57600080fd5b6000610d3d85828601610cc9565b9250506020610d4e85828601610cc9565b9150509250929050565b600080600060608486031215610d6d57600080fd5b6000610d7b86828701610cc9565b9350506020610d8c86828701610cc9565b9250506040610d9d86828701610cde565b9150509250925092565b60008060408385031215610dba57600080fd5b6000610dc885828601610cc9565b9250506020610dd985828601610cde565b9150509250929050565b6000610dee82610f74565b610df88185610f7f565b9350610e08818560208601611056565b610e1181611119565b840191505092915050565b6000610e29600583610f7f565b9150610e348261112a565b602082019050919050565b6000610e4c602d83610f7f565b9150610e5782611153565b604082019050919050565b6000610e6f603783610f7f565b9150610e7a826111a2565b604082019050919050565b6000610e92603783610f7f565b9150610e9d826111f1565b604082019050919050565b610eb18161104c565b82525050565b60006020820190508181036000830152610ed18184610de3565b905092915050565b60006020820190508181036000830152610ef281610e1c565b9050919050565b60006020820190508181036000830152610f1281610e3f565b9050919050565b60006020820190508181036000830152610f3281610e62565b9050919050565b60006020820190508181036000830152610f5281610e85565b9050919050565b6000602082019050610f6e6000830184610ea8565b92915050565b600081519050919050565b600082825260208201905092915050565b6000610f9b8261104c565b9150610fa68361104c565b9250827fffffffffffffffffffffffffffffffffffffffffffffffffffffffffffffffff03821115610fdb57610fda6110bb565b5b828201905092915050565b6000610ff18261104c565b9150610ffc8361104c565b92508282101561100f5761100e6110bb565b5b828203905092915050565b60006110258261102c565b9050919050565b600073ffffffffffffffffffffffffffffffffffffffff82169050919050565b6000819050919050565b60005b83811015611074578082015181840152602081019050611059565b83811115611083576000848401525b50505050565b600060028204905060018216806110a157607f821691505b602082108114156110b5576110b46110ea565b5b50919050565b7f4e487b7100000000000000000000000000000000000000000000000000000000600052601160045260246000fd5b7f4e487b7100000000000000000000000000000000000000000000000000000000600052602260045260246000fd5b6000601f19601f8301169050919050565b7f6572726f72000000000000000000000000000000000000000000000000000000600082015250565b7f416d6f756e74206973206772656174686572207468616e20746f74616c20537560008201527f70706c792062616279203a2d2800000000000000000000000000000000000000602082015250565b7f446f20796f752077616e6e612073656e6420796f7572206d6f6e657920746f2060008201527f6e6f6f6e653f205220752073747570696420626162793f000000000000000000602082015250565b7f444f20796f752077616e6e612073656e6420796f7572206d6f6e657920746f2060008201527f6e6f6f6e653f205220752073747570696420626162793f000000000000000000602082015250565b6112498161101a565b811461125457600080fd5b50565b6112608161104c565b811461126b57600080fd5b5056fea2646970667358221220dabd6619d914640c77ce2919e7c3c1cebb134cbe360cdfca7d9963e702809dee64736f6c63430008040033",
  "linkReferences": {},
  "deployedLinkReferences": {}
}